:100000000C9462000C948A000C948A000C948A0070
:100010000C948A000C948A000C948A000C948A0038
:100020000C948A000C948A000C948A000C948A0028
:100030000C948A000C948A000C948A000C948A0018
:100040000C94E3020C948A000C9453030C942D033B
:100050000C948A000C948A000C948A000C948A00F8
:100060000C948A000C948A000000000023002600F3
:10007000290000000000240027002A0000000000E2
:10008000250028002B0004040404040404040202D4
:100090000202020203030303030301020408102007
:1000A0004080010204081020010204081020000012
:1000B0000008000201000003040700000000000027
:1000C0000000420511241FBECFEFD8E0DEBFCDBF38
:1000D00011E0A0E0B1E0E0E7FBE002C005900D9286
:1000E000AA31B107D9F721E0AAE1B1E001C01D9220
:1000F000A23CB207E1F710E0C2E6D0E004C02197CD
:10010000FE010E94B005C136D107C9F70E94CA039B
:100110000C94B6050C94000090E0FC01E255FF4FF2
:100120002491FC01E656FF4F3491FC01EA57FF4F42
:10013000E491EE23C9F0222339F0233001F1A8F431
:10014000213019F1223029F1F0E0EE0FFF1FE458C1
:10015000FF4FA591B4918FB7F894EC91611126C02F
:1001600030953E233C938FBF08952730A9F0283067
:10017000C9F0243049F7809180008F7D03C08091C1
:1001800080008F7780938000DFCF84B58F7784BD28
:10019000DBCF84B58F7DFBCF8091B0008F778093CC
:1001A000B000D2CF8091B0008F7DF9CF3E2BDACF57
:1001B000CF93DF9390E0FC01E656FF4F24918A57DE
:1001C0009F4FFC0184918823D1F090E0880F991F04
:1001D000FC01EE58FF4FA591B491FC01E458FF4F8C
:1001E000C591D49161110EC09FB7F8948C91E22F04
:1001F000E0958E238C932881E223E8839FBFDF91D3
:10020000CF9108958FB7F894EC91E22BEC938FBFC8
:10021000F6CF3FB7F8948091210190912201A091EF
:100220002301B091240126B5A89B05C02F3F19F0EA
:100230000196A11DB11D3FBFBA2FA92F982F882766
:10024000BC01CD01620F711D811D911D42E0660F41
:10025000771F881F991F4A95D1F708958F929F9213
:10026000AF92BF92CF92DF92EF92FF924B015C016F
:100270000E9409016B017C010E9409016C197D0932
:100280008E099F09683E734081059105A8F321E01E
:10029000821A9108A108B10888EEC80E83E0D81E22
:1002A000E11CF11C81149104A104B10429F7FF9011
:1002B000EF90DF90CF90BF90AF909F908F90089578
:1002C000AF92BF92CF92DF92EF92FF920F931F9364
:1002D000CF93DF936C017B018B01040F151FEB01A2
:1002E0005E01AE18BF08C017D10759F06991D60159
:1002F000ED91FC910190F081E02DC6010995892BCB
:1003000079F7C501DF91CF911F910F91FF90EF9089
:10031000DF90CF90BF90AF900895FC01538D448D36
:10032000252F30E0842F90E0821B930B541710F0A0
:10033000CF96089501970895FC01918D828D9817AD
:1003400061F0A28DAE0FBF2FB11D5D968C91928D85
:100350009F5F9F73928F90E008958FEF9FEF0895B6
:10036000FC01918D828D981731F0828DE80FF11D7F
:10037000858D90E008958FEF9FEF0895FC01918D9A
:10038000228D892F90E0805C9F4F821B91098F7393
:100390009927089585E291E00E94BE0121E0892B12
:1003A00009F420E0822F089580E090E0892B29F065
:1003B0000E94CA0181110C9400000895FC01A48DD3
:1003C000A80FB92FB11DA35ABF4F2C91848D90E077
:1003D00001968F739927848FA689B7892C93A0895A
:1003E000B1898C91837080648C93938D848D9813E4
:1003F00006C00288F389E02D80818F7D8083089577
:10040000EF92FF920F931F93CF93DF93EC0181E064
:10041000888F9B8D8C8D98131AC0E889F98980810B
:1004200085FF15C09FB7F894EE89FF896083E8893E
:10043000F98980818370806480839FBF81E090E030
:10044000DF91CF911F910F91FF90EF900895F62EBD
:100450000B8D10E00F5F1F4F0F731127E02E8C8D57
:100460008E110CC00FB607FCFACFE889F98980819C
:1004700085FFF5CFCE010E94DE01F1CFEB8DEC0FB1
:10048000FD2FF11DE35AFF4FF0829FB7F8940B8FB9
:10049000EA89FB8980818062CFCFCF93DF93EC0123
:1004A000888D8823B9F0AA89BB89E889F9898C915C
:1004B00085FD03C0808186FD0DC00FB607FCF7CF18
:1004C0008C9185FFF2CF808185FFEDCFCE010E9418
:1004D000DE01E9CFDF91CF9108950F931F93CF9362
:1004E000DF938C01EB0161E0181619060CF060E057
:1004F00085E00E948C00612F661F6627661F86E0DC
:100500000E948C0061E01C161D060CF060E087E084
:100510000E948C006D2F661F6627661F88E0DF91A2
:10052000CF911F910F910C948C008F929F92AF925C
:10053000BF920F931F93CF93DF93CDB7DEB7A197F1
:100540000FB6F894DEBF0FBECDBF19A2423008F43B
:100550004AE08E010F5D1F4F842E912CB12CA12CEF
:10056000A50194010E946F05E62FB901CA01EA3086
:1005700044F5E05DD801EE938D01232B242B252B30
:1005800079F790E080E0109769F0FD01019000207C
:10059000E9F73197AF014A1B5B0BBD0185E291E0A2
:1005A0000E946001A1960FB6F894DEBF0FBECDBFCA
:1005B000DF91CF911F910F91BF90AF909F908F903F
:1005C0000895E95CD7CF1F920F920FB60F921124B6
:1005D0002F933F938F939F93AF93BF9380911D0170
:1005E00090911E01A0911F01B091200130911C013A
:1005F00023E0230F2D3758F50196A11DB11D20933F
:100600001C0180931D0190931E01A0931F01B093C4
:1006100020018091210190912201A0912301B091AC
:1006200024010196A11DB11D809321019093220107
:10063000A0932301B0932401BF91AF919F918F911B
:100640003F912F910F900FBE0F901F90189526E8A5
:10065000230F0296A11DB11DD2CF1F920F920FB68C
:100660000F9211242F933F934F935F936F937F9338
:100670008F939F93AF93BF93EF93FF9385E291E0A6
:100680000E94DE01FF91EF91BF91AF919F918F91F9
:100690007F916F915F914F913F912F910F900FBE7E
:1006A0000F901F9018951F920F920FB60F92112462
:1006B0002F938F939F93EF93FF93E0913501F091E8
:1006C00036018081E0913B01F0913C0182FD1BC02D
:1006D000908180913E018F5F8F7320913F0182173F
:1006E00041F0E0913E01F0E0EB5DFE4F958F80938D
:1006F0003E01FF91EF919F918F912F910F900FBE2F
:100700000F901F9018958081F4CFCF92DF92EF92D7
:10071000FF920F931F93E82FF92F05C00150110985
:100720002109310961F1908196239417B9F305C02D
:10073000015011092109310911F190819623941377
:10074000F7CFC12CD12CE12CF12C0AC08FEFC81AA5
:10075000D80AE80AF80A0C151D052E053F0579F0A0
:1007600080818623841791F36C2D7D2D8E2D9F2DF6
:100770001F910F91FF90EF90DF90CF90089560E070
:1007800070E080E090E01F910F91FF90EF90DF907C
:10079000CF900895789484B5826084BD84B58160DB
:1007A00084BD85B5826085BD85B5816085BD80913C
:1007B0006E00816080936E001092810080918100B4
:1007C00082608093810080918100816080938100AC
:1007D000809180008160809380008091B10084606E
:1007E0008093B1008091B00081608093B0008091CF
:1007F0007A00846080937A0080917A00826080938E
:100800007A0080917A00816080937A0080917A00EA
:10081000806880937A001092C10061E085E00E94B8
:10082000D80061E086E00E94D80061E087E00E9485
:10083000D80061E088E00E94D80061E089E00E9471
:10084000D80060E08AE00E94D800E0913501F09184
:10085000360182E08083E0913101F0913201108213
:10086000E0913301F091340180E1808310923D01E9
:10087000E0913901F0913A0186E08083E0913701FF
:10088000F0913801808180618083E0913701F0919F
:100890003801808188608083E0913701F0913801D0
:1008A000808180688083E0913701F09138018081F8
:1008B0008F7D8083C3E0D0E023E2A22EB12C30E90B
:1008C000232E30E0332E4AE3442E512C612C712C20
:1008D00050E0852E50E0952E60E089E00E948C006B
:1008E000CE010197F1F761E089E00E948C00C5011B
:1008F0000197F1F760E089E00E948C00E4EAF0E003
:100900006491F1018491E82FF0E0EE0FFF1FE859A8
:10091000FF4F8591949100E315E720E030E0462FEA
:100920000E948503611571058105910509F45AC07E
:100930006F5F7F4F8F4F9F4F9F70611571058105CE
:10094000910509F44FC0A30192010E94910569012C
:100950007A014AE0C701B6010E94950242E050E0E8
:1009600066E171E085E291E00E946001F9E1CF1655
:10097000D104E104F104ECF56FEF7FEF8FEF9FEF0F
:100980000E946D026AEF70E080E090E00E942E010C
:100990006FEF7FEF81E090E00E946D026EE571E005
:1009A00080E090E00E942E0110921B0110921A012B
:1009B000C0920001D0920101E0920201F092030185
:1009C0006CE370E080E090E00E942E0181149104BD
:1009D00009F482CF0E94CA01882309F47DCF0E94C6
:1009E00000007ACF87EEC82E83E0D82EE12CF12CC0
:1009F000B0CF8091000190910101A0910201B091CE
:100A00000301A7019601281B390B4A0B5B0BDA0186
:100A1000C9010196A11DB11D0397A105B10530F5CE
:100A200080911A0190911B01019690931B01809374
:100A30001A0180911A0190911B010F97E4F06FEF5A
:100A40007FEF8FEF9FEF0E946D0260E971E080E021
:100A500090E00E942E0161E070E08FEF9FEF0E9416
:100A60006D026CE271E080E090E09CCF10921B017F
:100A700010921A01DECF61E070E081E090E00E9408
:100A80006D0296CFE5E2F1E01382128288EE93E0E8
:100A9000A0E0B0E084839583A683B78388E091E0EB
:100AA0009183808385EC90E09587848784EC90E047
:100AB0009787868780EC90E0918B808B81EC90E02B
:100AC000938B828B82EC90E0958B848B86EC90E00C
:100AD000978B868B118E128E138E148E0895A1E241
:100AE0001A2EAA1BBB1BFD010DC0AA1FBB1FEE1FA8
:100AF000FF1FA217B307E407F50720F0A21BB30BF3
:100B0000E40BF50B661F771F881F991F1A9469F76E
:100B100060957095809590959B01AC01BD01CF01CA
:100B20000895052E97FB1EF400940E94A80557FD1A
:100B300007D00E946F0507FC03D04EF40C94A80563
:100B400050954095309521953F4F4F4F5F4F0895F9
:100B500090958095709561957F4F8F4F9F4F089529
:100B6000EE0FFF1F0590F491E02D0994F894FFCF4C
:100B7000FFFFFFFF00000000000260018D014D0239
:0A0B8000BE019C01B0010D0A000047
:00000001FF
