:100000000C9435000C945D000C945D000C945D0024
:100010000C945D000C945D000C945D000C945D00EC
:100020000C945D000C945D000C945D000C945D00DC
:100030000C945D000C945D000C945D000C945D00CC
:100040000C949E010C945D000C940E020C94E8013B
:100050000C945D000C945D000C945D000C945D00AC
:100060000C945D000C945D00380311241FBECFEF8B
:10007000D8E0DEBFCDBF11E0A0E0B1E0EEE1F7E0F7
:1000800002C005900D92A632B107D9F721E0A6E291
:10009000B1E001C01D92A03DB207E1F710E0C5E359
:1000A000D0E004C02197FE010E948703C433D1072A
:1000B000C9F70E9440020C948D030C9400003FB7D6
:1000C000F89480912F0190913001A0913101B0916D
:1000D000320126B5A89B05C02F3F19F00196A11D3E
:1000E000B11D3FBFBA2FA92F982F8827BC01CD0182
:1000F000620F711D811D911D42E0660F771F881FE1
:10010000991F4A95D1F70895AF92BF92CF92DF928F
:10011000EF92FF920F931F93CF93DF936C017B01BC
:100120008B01040F151FEB015E01AE18BF08C0174D
:10013000D10759F06991D601ED91FC910190F081C0
:10014000E02DC6010995892B79F7C501DF91CF9183
:100150001F910F91FF90EF90DF90CF90BF90AF90E5
:100160000895FC01538D448D252F30E0842F90E0BD
:10017000821B930B541710F0CF96089501970895A2
:10018000FC01918D828D981761F0A28DAE0FBF2F6B
:10019000B11D5D968C91928D9F5F9F73928F90E0C1
:1001A00008958FEF9FEF0895FC01918D828D981730
:1001B00031F0828DE80FF11D858D90E008958FEF6D
:1001C0009FEF0895FC01918D228D892F90E0805C36
:1001D0009F4F821B91098F739927089583E391E0C4
:1001E0000E94E20021E0892B09F420E0822F08958B
:1001F00080E090E0892B29F00E94EE0081110C94A0
:1002000000000895FC01A48DA80FB92FB11DA35AB9
:10021000BF4F2C91848D90E001968F739927848F26
:10022000A689B7892C93A089B1898C918370806449
:100230008C93938D848D981306C00288F389E02DEA
:1002400080818F7D80830895EF92FF920F931F939B
:10025000CF93DF93EC0181E0888F9B8D8C8D981379
:100260001AC0E889F989808185FF15C09FB7F89485
:10027000EE89FF896083E889F989808183708064D1
:1002800080839FBF81E090E0DF91CF911F910F911C
:10029000FF90EF900895F62E0B8D10E00F5F1F4F2B
:1002A0000F731127E02E8C8D8E110CC00FB607FC3A
:1002B000FACFE889F989808185FFF5CFCE010E94C8
:1002C0000201F1CFEB8DEC0FFD2FF11DE35AFF4F33
:1002D000F0829FB7F8940B8FEA89FB898081806256
:1002E000CFCFCF93DF93EC01888D8823B9F0AA8913
:1002F000BB89E889F9898C9185FD03C0808186FDE1
:100300000DC00FB607FCF7CF8C9185FFF2CF80812F
:1003100085FFEDCFCE010E940201E9CFDF91CF91A1
:100320000895FC0101900020E9F73197AF01481BC7
:10033000590BBC0183E391E00C9484001F920F924F
:100340000FB60F9211242F933F938F939F93AF93E8
:10035000BF9380912B0190912C01A0912D01B09120
:100360002E0130912A0123E0230F2D3758F50196F5
:10037000A11DB11D20932A0180932B0190932C0184
:10038000A0932D01B0932E0180912F019091300107
:10039000A0913101B09132010196A11DB11D809350
:1003A0002F0190933001A0933101B0933201BF919E
:1003B000AF919F918F913F912F910F900FBE0F9012
:1003C0001F90189526E8230F0296A11DB11DD2CFCC
:1003D0001F920F920FB60F9211242F933F934F93BA
:1003E0005F936F937F938F939F93AF93BF93EF939D
:1003F000FF9383E391E00E940201FF91EF91BF918F
:10040000AF919F918F917F916F915F914F913F91AC
:100410002F910F900FBE0F901F9018951F920F9263
:100420000FB60F9211242F938F939F93EF93FF9307
:10043000E0914301F09144018081E0914901F09104
:100440004A0182FD1BC0908180914C018F5F8F73A8
:1004500020914D01821741F0E0914C01F0E0ED5CFC
:10046000FE4F958F80934C01FF91EF919F918F915B
:100470002F910F900FBE0F901F9018958081F4CF91
:10048000CF93DF93CDB7DEB7A1970FB6F894DEBF59
:100490000FBECDBF789484B5826084BD84B5816081
:1004A00084BD85B5826085BD85B5816085BD80913F
:1004B0006E00816080936E001092810080918100B7
:1004C00082608093810080918100816080938100AF
:1004D000809180008160809380008091B100846071
:1004E0008093B1008091B00081608093B0008091D2
:1004F0007A00846080937A0080917A008260809391
:100500007A0080917A00816080937A0080917A00ED
:10051000806880937A001092C100E0914301F091CD
:10052000440182E08083E0913F01F091400110821C
:10053000E0914101F09142018FEC808310924B01D8
:10054000E0914701F091480186E08083E091450108
:10055000F0914601808180618083E0914501F091B6
:100560004601808188608083E0914501F0914601D9
:10057000808180688083E0914501F091460180810F
:100580008F7D808382E191E00E9491018DE191E075
:100590000E9491019AE0892E912CA12CB12C20E08F
:1005A000222E20E0322E80E291E00E9491012091E3
:1005B0002601309127014091280150912901DA014B
:1005C000C9010196A11DB11D8093260190932701B9
:1005D000A0932801B093290119A28E010F5D1F4F2E
:1005E000CA01B901A50194010E946503605DF8018B
:1005F00062938F01211531054105510589F7309727
:1006000019F0CF010E9491018DE191E00E949101CA
:100610000E945F006B017C0184E6482E512C612C06
:10062000712C0E945F006C197D098E099F09683E3C
:10063000734081059105A8F3F1E04F1A5108610854
:10064000710828EEC20E23E0D21EE11CF11C4114F9
:1006500051046104710429F72114310409F4A3CF72
:100660000E94EE00882309F49ECF0E9400009BCFD9
:10067000E3E3F1E01382128288EE93E0A0E0B0E0C1
:1006800084839583A683B78384E091E091838083FC
:1006900085EC90E09587848784EC90E09787868747
:1006A00080EC90E0918B808B81EC90E0938B828B3F
:1006B00082EC90E0958B848B86EC90E0978B868B18
:1006C000118E128E138E148E0895A1E21A2EAA1B7B
:1006D000BB1BFD010DC0AA1FBB1FEE1FFF1FA217F2
:1006E000B307E407F50720F0A21BB30BE40BF50BEF
:1006F000661F771F881F991F1A9469F76095709578
:10070000809590959B01AC01BD01CF010895EE0F3E
:0E071000FF1F0590F491E02D0994F894FFCF9F
:10071E000000000024018400B1007101E200C0005D
:10072E00D400436F7265456E67696E65000D0A00F1
:06073E007469636B2000EA
:00000001FF
